{
  "_format": "hh-sol-artifact-1",
  "contractName": "Mintraribles",
  "sourceName": "contracts/Mintraribles.sol",
  "abi": [
    {
      "inputs": [],
      "stateMutability": "nonpayable",
      "type": "constructor"
    },
    {
      "anonymous": false,
      "inputs": [
        {
          "indexed": false,
          "internalType": "uint256",
          "name": "id",
          "type": "uint256"
        },
        {
          "indexed": true,
          "internalType": "address",
          "name": "owner",
          "type": "address"
        },
        {
          "indexed": false,
          "internalType": "uint256",
          "name": "cost",
          "type": "uint256"
        },
        {
          "indexed": false,
          "internalType": "string",
          "name": "metadataURI",
          "type": "string"
        },
        {
          "indexed": false,
          "internalType": "uint256",
          "name": "timestamp",
          "type": "uint256"
        }
      ],
      "name": "Sale",
      "type": "event"
    },
    {
      "inputs": [
        {
          "internalType": "address",
          "name": "",
          "type": "address"
        }
      ],
      "name": "OwnerOfNft",
      "outputs": [
        {
          "internalType": "address",
          "name": "",
          "type": "address"
        }
      ],
      "stateMutability": "view",
      "type": "function"
    },
    {
      "inputs": [
        {
          "internalType": "address",
          "name": "",
          "type": "address"
        }
      ],
      "name": "artists",
      "outputs": [
        {
          "internalType": "address",
          "name": "",
          "type": "address"
        }
      ],
      "stateMutability": "view",
      "type": "function"
    },
    {
      "inputs": [
        {
          "internalType": "uint256",
          "name": "_cost",
          "type": "uint256"
        }
      ],
      "name": "changeCost",
      "outputs": [],
      "stateMutability": "nonpayable",
      "type": "function"
    },
    {
      "inputs": [
        {
          "internalType": "address",
          "name": "nftContract",
          "type": "address"
        },
        {
          "internalType": "uint256",
          "name": "newPrice",
          "type": "uint256"
        }
      ],
      "name": "changePrice",
      "outputs": [
        {
          "internalType": "bool",
          "name": "",
          "type": "bool"
        }
      ],
      "stateMutability": "nonpayable",
      "type": "function"
    },
    {
      "inputs": [
        {
          "internalType": "uint256",
          "name": "_royality",
          "type": "uint256"
        }
      ],
      "name": "changeRoyalityPer",
      "outputs": [],
      "stateMutability": "nonpayable",
      "type": "function"
    },
    {
      "inputs": [],
      "name": "cost",
      "outputs": [
        {
          "internalType": "uint256",
          "name": "",
          "type": "uint256"
        }
      ],
      "stateMutability": "view",
      "type": "function"
    },
    {
      "inputs": [
        {
          "internalType": "string",
          "name": "baseURI",
          "type": "string"
        },
        {
          "internalType": "string",
          "name": "name",
          "type": "string"
        },
        {
          "internalType": "string",
          "name": "shortN",
          "type": "string"
        }
      ],
      "name": "createMint",
      "outputs": [
        {
          "internalType": "address",
          "name": "",
          "type": "address"
        }
      ],
      "stateMutability": "payable",
      "type": "function"
    },
    {
      "inputs": [],
      "name": "getAllNFTs",
      "outputs": [
        {
          "components": [
            {
              "internalType": "address",
              "name": "owner",
              "type": "address"
            },
            {
              "internalType": "address",
              "name": "newOwner",
              "type": "address"
            },
            {
              "internalType": "uint256",
              "name": "cost",
              "type": "uint256"
            },
            {
              "internalType": "string",
              "name": "metadata",
              "type": "string"
            },
            {
              "internalType": "uint256",
              "name": "timestamp",
              "type": "uint256"
            }
          ],
          "internalType": "struct Mintraribles.TransactionStruct[]",
          "name": "",
          "type": "tuple[]"
        }
      ],
      "stateMutability": "view",
      "type": "function"
    },
    {
      "inputs": [],
      "name": "getAllTransactions",
      "outputs": [
        {
          "components": [
            {
              "internalType": "address",
              "name": "owner",
              "type": "address"
            },
            {
              "internalType": "address",
              "name": "newOwner",
              "type": "address"
            },
            {
              "internalType": "uint256",
              "name": "cost",
              "type": "uint256"
            },
            {
              "internalType": "string",
              "name": "metadata",
              "type": "string"
            },
            {
              "internalType": "uint256",
              "name": "timestamp",
              "type": "uint256"
            }
          ],
          "internalType": "struct Mintraribles.TransactionStruct[]",
          "name": "",
          "type": "tuple[]"
        }
      ],
      "stateMutability": "view",
      "type": "function"
    },
    {
      "inputs": [
        {
          "internalType": "uint256",
          "name": "id",
          "type": "uint256"
        }
      ],
      "name": "getNFT",
      "outputs": [
        {
          "components": [
            {
              "internalType": "address",
              "name": "owner",
              "type": "address"
            },
            {
              "internalType": "address",
              "name": "newOwner",
              "type": "address"
            },
            {
              "internalType": "uint256",
              "name": "cost",
              "type": "uint256"
            },
            {
              "internalType": "string",
              "name": "metadata",
              "type": "string"
            },
            {
              "internalType": "uint256",
              "name": "timestamp",
              "type": "uint256"
            }
          ],
          "internalType": "struct Mintraribles.TransactionStruct",
          "name": "",
          "type": "tuple"
        }
      ],
      "stateMutability": "view",
      "type": "function"
    },
    {
      "inputs": [],
      "name": "getOnSale",
      "outputs": [
        {
          "components": [
            {
              "internalType": "address",
              "name": "owner",
              "type": "address"
            },
            {
              "internalType": "uint256",
              "name": "price",
              "type": "uint256"
            },
            {
              "internalType": "address",
              "name": "contractAddr",
              "type": "address"
            },
            {
              "internalType": "string",
              "name": "metadata",
              "type": "string"
            }
          ],
          "internalType": "struct Mintraribles.OnSale[]",
          "name": "",
          "type": "tuple[]"
        }
      ],
      "stateMutability": "view",
      "type": "function"
    },
    {
      "inputs": [
        {
          "internalType": "address",
          "name": "addr",
          "type": "address"
        }
      ],
      "name": "getPrice",
      "outputs": [
        {
          "internalType": "uint256",
          "name": "",
          "type": "uint256"
        }
      ],
      "stateMutability": "view",
      "type": "function"
    },
    {
      "inputs": [
        {
          "internalType": "uint256",
          "name": "",
          "type": "uint256"
        }
      ],
      "name": "onSale",
      "outputs": [
        {
          "internalType": "address",
          "name": "owner",
          "type": "address"
        },
        {
          "internalType": "uint256",
          "name": "price",
          "type": "uint256"
        },
        {
          "internalType": "address",
          "name": "contractAddr",
          "type": "address"
        },
        {
          "internalType": "string",
          "name": "metadata",
          "type": "string"
        }
      ],
      "stateMutability": "view",
      "type": "function"
    },
    {
      "inputs": [],
      "name": "owner",
      "outputs": [
        {
          "internalType": "address",
          "name": "",
          "type": "address"
        }
      ],
      "stateMutability": "view",
      "type": "function"
    },
    {
      "inputs": [
        {
          "internalType": "address",
          "name": "contractAddr",
          "type": "address"
        },
        {
          "internalType": "address",
          "name": "ownerOfNFT",
          "type": "address"
        }
      ],
      "name": "payToBuy",
      "outputs": [],
      "stateMutability": "payable",
      "type": "function"
    },
    {
      "inputs": [
        {
          "internalType": "address",
          "name": "",
          "type": "address"
        }
      ],
      "name": "prices",
      "outputs": [
        {
          "internalType": "uint256",
          "name": "",
          "type": "uint256"
        }
      ],
      "stateMutability": "view",
      "type": "function"
    },
    {
      "inputs": [
        {
          "internalType": "uint256",
          "name": "_price",
          "type": "uint256"
        },
        {
          "internalType": "address",
          "name": "_contractAddr",
          "type": "address"
        },
        {
          "internalType": "string",
          "name": "_metadata",
          "type": "string"
        }
      ],
      "name": "putOnSale",
      "outputs": [],
      "stateMutability": "nonpayable",
      "type": "function"
    },
    {
      "inputs": [
        {
          "internalType": "address",
          "name": "_contractAddr",
          "type": "address"
        }
      ],
      "name": "removeFromSale",
      "outputs": [],
      "stateMutability": "nonpayable",
      "type": "function"
    },
    {
      "inputs": [],
      "name": "royalityFee",
      "outputs": [
        {
          "internalType": "uint256",
          "name": "",
          "type": "uint256"
        }
      ],
      "stateMutability": "view",
      "type": "function"
    },
    {
      "inputs": [],
      "name": "totalTx",
      "outputs": [
        {
          "internalType": "uint256",
          "name": "",
          "type": "uint256"
        }
      ],
      "stateMutability": "view",
      "type": "function"
    },
    {
      "inputs": [],
      "name": "withdrawTax",
      "outputs": [],
      "stateMutability": "nonpayable",
      "type": "function"
    }
  ],
  "bytecode": "0x6080604052662386f26fc10000600255600260035534801561002057600080fd5b50600480546001600160a01b0319163317905561382d806100426000396000f3fe608060405260043610620001425760003560e01c80637220cf3911620000b9578063cfed246b1162000078578063cfed246b14620003bc578063d30944b314620003ed578063da78bc691462000423578063dfa20f0a146200044a578063e0391b091462000462578063f4027a32146200047a57600080fd5b80637220cf39146200031d5780638ac4d13714620003355780638cae2f92146200034c5780638da5cb5b1462000363578063b43a76f1146200038557600080fd5b8063326bb4ad1162000106578063326bb4ad14620002385780633fcb3a0f146200025057806341976e09146200028a578063576f7ea714620002c45780635cb85cd214620002f857600080fd5b8062f40ad41462000147578063069dab8f146200016e57806313faede614620001c55780632062682514620001ec57806327506f531462000211575b600080fd5b3480156200015457600080fd5b506200016c620001663660046200177a565b6200049f565b005b3480156200017b57600080fd5b50620001a86200018d3660046200177a565b6000602081905290815260409020546001600160a01b031681565b6040516001600160a01b0390911681526020015b60405180910390f35b348015620001d257600080fd5b50620001dd60025481565b604051908152602001620001bc565b348015620001f957600080fd5b506200016c6200020b366004620017a1565b62000629565b3480156200021e57600080fd5b50620002296200065b565b604051620001bc919062001864565b3480156200024557600080fd5b50620001dd60035481565b3480156200025d57600080fd5b50620001a86200026f3660046200177a565b6008602052600090815260409020546001600160a01b031681565b3480156200029757600080fd5b50620001dd620002a93660046200177a565b6001600160a01b031660009081526009602052604090205490565b348015620002d157600080fd5b50620002e9620002e3366004620017a1565b6200078e565b604051620001bc9190620018ca565b3480156200030557600080fd5b506200016c62000317366004620017a1565b620008cf565b3480156200032a57600080fd5b50620001dd60015481565b620001a862000346366004620019b0565b62000901565b6200016c6200035d36600462001a42565b62000b62565b3480156200037057600080fd5b50600454620001a8906001600160a01b031681565b3480156200039257600080fd5b50620003aa620003a4366004620017a1565b6200100f565b604051620001bc949392919062001a80565b348015620003c957600080fd5b50620001dd620003db3660046200177a565b60096020526000908152604090205481565b348015620003fa57600080fd5b50620004126200040c36600462001abf565b620010eb565b6040519015158152602001620001bc565b3480156200043057600080fd5b506200043b620011b8565b604051620001bc919062001aee565b3480156200045757600080fd5b506200016c620012da565b3480156200046f57600080fd5b506200022962001321565b3480156200048757600080fd5b506200016c6200049936600462001b89565b6200144b565b6001600160a01b03818116600090815260086020526040902054163314620005065760405162461bcd60e51b81526020600482015260156024820152742cb7ba9030b932903737ba103a34329037bbb732b960591b60448201526064015b60405180910390fd5b60005b6005548110156200062557816001600160a01b03166005828154811062000534576200053462001bde565b60009182526020909120600260049092020101546001600160a01b0316148015620005965750336001600160a01b0316600582815481106200057a576200057a62001bde565b60009182526020909120600490910201546001600160a01b0316145b15620006105760058181548110620005b257620005b262001bde565b60009182526020822060049091020180546001600160a01b0319908116825560018201839055600282018054909116905590620005f36003830182620016f9565b5050506001600160a01b0316600090815260096020526040812055565b806200061c8162001c0a565b91505062000509565b5050565b6004546001600160a01b03163314620006565760405162461bcd60e51b8152600401620004fd9062001c26565b600355565b60606006805480602002602001604051908101604052809291908181526020016000905b82821015620007855760008481526020908190206040805160a0810182526005860290920180546001600160a01b03908116845260018201541693830193909352600283015490820152600382018054919291606084019190620006e39062001c53565b80601f0160208091040260200160405190810160405280929190818152602001828054620007119062001c53565b8015620007625780601f10620007365761010080835404028352916020019162000762565b820191906000526020600020905b8154815290600101906020018083116200074457829003601f168201915b50505050508152602001600482015481525050815260200190600101906200067f565b50505050905090565b6040805160a08101825260008082526020820181905291810182905260608082015260808101919091526007620007c760018462001c8f565b81548110620007da57620007da62001bde565b60009182526020918290206040805160a081018252600590930290910180546001600160a01b03908116845260018201541693830193909352600283015490820152600382018054919291606084019190620008369062001c53565b80601f0160208091040260200160405190810160405280929190818152602001828054620008649062001c53565b8015620008b55780601f106200088957610100808354040283529160200191620008b5565b820191906000526020600020905b8154815290600101906020018083116200089757829003601f168201915b505050505081526020016004820154815250509050919050565b6004546001600160a01b03163314620008fc5760405162461bcd60e51b8152600401620004fd9062001c26565b600255565b6000600254341015620009575760405162461bcd60e51b815260206004820152601a60248201527f457468657220746f6f206c6f7720666f72206d696e74696e67210000000000006044820152606401620004fd565b6000848484336040516200096b906200173b565b6200097a949392919062001ca5565b604051809103906000f08015801562000997573d6000803e3d6000fd5b506001600160a01b03811660008181526008602090815260408083208054336001600160a01b03199182168117909255928490528184208054909316179091555163c87b56dd60e01b8152600160048201529293509163c87b56dd90602401600060405180830381865afa15801562000a14573d6000803e3d6000fd5b505050506040513d6000823e601f3d908101601f1916820160405262000a3e919081019062001cfe565b6040805160a0810182523380825260208201908152600092820183815260608301858152426080850152600780546001810182559552835160059095027fa66cc928b5edb82af9bd49922954155ab7b0942694bea4ce44661d9a8736c688810180546001600160a01b039788166001600160a01b031991821617825594517fa66cc928b5edb82af9bd49922954155ab7b0942694bea4ce44661d9a8736c689830180549190981695169490941790955590517fa66cc928b5edb82af9bd49922954155ab7b0942694bea4ce44661d9a8736c68a85015551939450909290917fa66cc928b5edb82af9bd49922954155ab7b0942694bea4ce44661d9a8736c68b019062000b4b908262001dc8565b506080919091015160049091015550949350505050565b6001600160a01b03821660009081526009602052604090205434101562000bcc5760405162461bcd60e51b815260206004820152601b60248201527f457468657220746f6f206c6f7720666f722070757263686173652100000000006044820152606401620004fd565b6001600160a01b0380831660009081526008602052604090205416330362000c2b5760405162461bcd60e51b81526020600482015260116024820152702cb7ba9030b932903a34329037bbb732b960791b6044820152606401620004fd565b600060646003543462000c3f919062001e95565b62000c4b919062001eaf565b6001600160a01b0380851660009081526020819052604090205491925062000c7591168262001691565b62000c8c3362000c86833462001c8f565b62001691565b6001805490600062000c9e8362001c0a565b909155505060405163c87b56dd60e01b8152600160048201526000906001600160a01b0385169063c87b56dd90602401600060405180830381865afa15801562000cec573d6000803e3d6000fd5b505050506040513d6000823e601f3d908101601f1916820160405262000d16919081019062001cfe565b6040516323b872dd60e01b81526001600160a01b03858116600483015233602483015260016044830152919250908516906323b872dd90606401600060405180830381600087803b15801562000d6b57600080fd5b505af115801562000d80573d6000803e3d6000fd5b50506040805160a0810182526001600160a01b03808916600081815260086020908152858220548416855233818601908152928252600990528481205494840194855260608401888152426080860152600680546001810182559252845160059092027ff652222313e28459528d920b65115c16c04f3efc82aaedc97be59f3f377c0d3f810180549386166001600160a01b031994851617815593517ff652222313e28459528d920b65115c16c04f3efc82aaedc97be59f3f377c0d40820180549190961693169290921790935593517ff652222313e28459528d920b65115c16c04f3efc82aaedc97be59f3f377c0d41850155905191945092507ff652222313e28459528d920b65115c16c04f3efc82aaedc97be59f3f377c0d429091019062000eac908262001dc8565b50608082015181600401555050336001600160a01b03167fb9508407a6eccb191d8da3286f4173697cf95604e9ea192fe5ab7c862b5221f660015434844260405162000efc949392919062001ed2565b60405180910390a26001600160a01b038416600090815260086020526040812080546001600160a01b031916331790555b6005548110156200100857846001600160a01b03166005828154811062000f585762000f5862001bde565b60009182526020909120600260049092020101546001600160a01b03160362000ff3576005818154811062000f915762000f9162001bde565b60009182526020822060049091020180546001600160a01b031990811682556001820183905560028201805490911690559062000fd26003830182620016f9565b50506001600160a01b03851660009081526009602052604081205562001008565b8062000fff8162001c0a565b91505062000f2d565b5050505050565b600581815481106200102057600080fd5b600091825260209091206004909102018054600182015460028301546003840180546001600160a01b0394851696509294939091169291620010629062001c53565b80601f0160208091040260200160405190810160405280929190818152602001828054620010909062001c53565b8015620010e15780601f10620010b557610100808354040283529160200191620010e1565b820191906000526020600020905b815481529060010190602001808311620010c357829003601f168201915b5050505050905084565b60008082116200112f5760405162461bcd60e51b815260206004820152600e60248201526d457468657220746f6f206c6f772160901b6044820152606401620004fd565b6001600160a01b03838116600090815260086020526040902054163314620011935760405162461bcd60e51b81526020600482015260166024820152754f7065726174696f6e204e6f7420416c6c6f7765642160501b6044820152606401620004fd565b506001600160a01b038216600090815260096020526040902081905560015b92915050565b60606005805480602002602001604051908101604052809291908181526020016000905b8282101562000785576000848152602090819020604080516080810182526004860290920180546001600160a01b039081168452600182015494840194909452600281015490931690820152600382018054919291606084019190620012429062001c53565b80601f0160208091040260200160405190810160405280929190818152602001828054620012709062001c53565b8015620012c15780601f106200129557610100808354040283529160200191620012c1565b820191906000526020600020905b815481529060010190602001808311620012a357829003601f168201915b50505050508152505081526020019060010190620011dc565b6004546001600160a01b03163314620013075760405162461bcd60e51b8152600401620004fd9062001c26565b6004546200131f906001600160a01b03164762001691565b565b60606007805480602002602001604051908101604052809291908181526020016000905b82821015620007855760008481526020908190206040805160a0810182526005860290920180546001600160a01b03908116845260018201541693830193909352600283015490820152600382018054919291606084019190620013a99062001c53565b80601f0160208091040260200160405190810160405280929190818152602001828054620013d79062001c53565b8015620014285780601f10620013fc5761010080835404028352916020019162001428565b820191906000526020600020905b8154815290600101906020018083116200140a57829003601f168201915b505050505081526020016004820154815250508152602001906001019062001345565b6001600160a01b03828116600090815260086020526040902054163314620014ae5760405162461bcd60e51b81526020600482015260156024820152742cb7ba9030b932903737ba103a34329037bbb732b960591b6044820152606401620004fd565b60405163020604bf60e21b81526001600482015230906001600160a01b0384169063081812fc90602401602060405180830381865afa158015620014f6573d6000803e3d6000fd5b505050506040513d601f19601f820116820180604052508101906200151c919062001f04565b6001600160a01b031614620015745760405162461bcd60e51b815260206004820152601960248201527f746f6b656e206973206e6f7420617070726f76656420796574000000000000006044820152606401620004fd565b6001600160a01b038083166000818152600960209081526040808320889055805160808101825233815291820188815290820193845260608201868152600580546001810182559452825160049094027f036b6384b5eca791c62761152d0c79bb0604c104a5fb6f4eb0703f3154bb3db0810180549588166001600160a01b031996871617815592517f036b6384b5eca791c62761152d0c79bb0604c104a5fb6f4eb0703f3154bb3db182015594517f036b6384b5eca791c62761152d0c79bb0604c104a5fb6f4eb0703f3154bb3db2860180549190971694169390931790945590519092917f036b6384b5eca791c62761152d0c79bb0604c104a5fb6f4eb0703f3154bb3db3019062001689908262001dc8565b505050505050565b6000826001600160a01b03168260405160006040518083038185875af1925050503d8060008114620016e0576040519150601f19603f3d011682016040523d82523d6000602084013e620016e5565b606091505b5050905080620016f457600080fd5b505050565b508054620017079062001c53565b6000825580601f1062001718575050565b601f01602090049060005260206000209081019062001738919062001749565b50565b6118d38062001f2583390190565b5b808211156200176057600081556001016200174a565b5090565b6001600160a01b03811681146200173857600080fd5b6000602082840312156200178d57600080fd5b81356200179a8162001764565b9392505050565b600060208284031215620017b457600080fd5b5035919050565b60005b83811015620017d8578181015183820152602001620017be565b50506000910152565b60008151808452620017fb816020860160208601620017bb565b601f01601f19169290920160200192915050565b600060018060a01b038083511684528060208401511660208501525060408201516040840152606082015160a060608501526200185060a0850182620017e1565b608093840151949093019390935250919050565b6000602080830181845280855180835260408601915060408160051b870101925083870160005b82811015620018bd57603f19888603018452620018aa8583516200180f565b945092850192908501906001016200188b565b5092979650505050505050565b6020815260006200179a60208301846200180f565b634e487b7160e01b600052604160045260246000fd5b604051601f8201601f1916810167ffffffffffffffff81118282101715620019215762001921620018df565b604052919050565b600067ffffffffffffffff821115620019465762001946620018df565b50601f01601f191660200190565b600082601f8301126200196657600080fd5b81356200197d620019778262001929565b620018f5565b8181528460208386010111156200199357600080fd5b816020850160208301376000918101602001919091529392505050565b600080600060608486031215620019c657600080fd5b833567ffffffffffffffff80821115620019df57600080fd5b620019ed8783880162001954565b9450602086013591508082111562001a0457600080fd5b62001a128783880162001954565b9350604086013591508082111562001a2957600080fd5b5062001a388682870162001954565b9150509250925092565b6000806040838503121562001a5657600080fd5b823562001a638162001764565b9150602083013562001a758162001764565b809150509250929050565b6001600160a01b038581168252602082018590528316604082015260806060820181905260009062001ab590830184620017e1565b9695505050505050565b6000806040838503121562001ad357600080fd5b823562001ae08162001764565b946020939093013593505050565b60006020808301818452808551808352604092508286019150828160051b87010184880160005b8381101562001b7b57888303603f19018552815180516001600160a01b039081168552888201518986015287820151168785015260609081015160809185018290529062001b6681860183620017e1565b96890196945050509086019060010162001b15565b509098975050505050505050565b60008060006060848603121562001b9f57600080fd5b83359250602084013562001bb38162001764565b9150604084013567ffffffffffffffff81111562001bd057600080fd5b62001a388682870162001954565b634e487b7160e01b600052603260045260246000fd5b634e487b7160e01b600052601160045260246000fd5b60006001820162001c1f5762001c1f62001bf4565b5060010190565b6020808252601390820152721e5bdd4818d85b881b9bdd08191bc81d1a185d606a1b604082015260600190565b600181811c9082168062001c6857607f821691505b60208210810362001c8957634e487b7160e01b600052602260045260246000fd5b50919050565b81810381811115620011b257620011b262001bf4565b60808152600062001cba6080830187620017e1565b828103602084015262001cce8187620017e1565b9050828103604084015262001ce48186620017e1565b91505060018060a01b038316606083015295945050505050565b60006020828403121562001d1157600080fd5b815167ffffffffffffffff81111562001d2957600080fd5b8201601f8101841362001d3b57600080fd5b805162001d4c620019778262001929565b81815285602083850101111562001d6257600080fd5b62001d75826020830160208601620017bb565b95945050505050565b601f821115620016f457600081815260208120601f850160051c8101602086101562001da75750805b601f850160051c820191505b81811015620016895782815560010162001db3565b815167ffffffffffffffff81111562001de55762001de5620018df565b62001dfd8162001df6845462001c53565b8462001d7e565b602080601f83116001811462001e35576000841562001e1c5750858301515b600019600386901b1c1916600185901b17855562001689565b600085815260208120601f198616915b8281101562001e665788860151825594840194600190910190840162001e45565b508582101562001e855787850151600019600388901b60f8161c191681555b5050505050600190811b01905550565b8082028115828204841417620011b257620011b262001bf4565b60008262001ecd57634e487b7160e01b600052601260045260246000fd5b500490565b84815283602082015260806040820152600062001ef36080830185620017e1565b905082606083015295945050505050565b60006020828403121562001f1757600080fd5b81516200179a816200176456fe608060405260016007553480156200001657600080fd5b50604051620018d3380380620018d383398101604081905262000039916200056f565b82826000620000498382620006b0565b506001620000588282620006b0565b50600691506200006b90508582620006b0565b50620000778162000081565b505050506200082d565b6007546008541115620000db5760405162461bcd60e51b815260206004820152601b60248201527f457863656564206d6178696d756d20746f6b656e20737570706c79000000000060448201526064015b60405180910390fd5b600160086000828254620000f091906200077c565b90915550506008546200010590829062000108565b50565b6200012a8282604051806020016040528060008152506200012e60201b60201c565b5050565b6200013a8383620001a6565b62000149600084848462000337565b620001a15760405162461bcd60e51b81526020600482015260326024820152600080516020620018b383398151915260448201527131b2b4bb32b91034b6b83632b6b2b73a32b960711b6064820152608401620000d2565b505050565b6001600160a01b038216620001fe5760405162461bcd60e51b815260206004820181905260248201527f4552433732313a206d696e7420746f20746865207a65726f20616464726573736044820152606401620000d2565b6000818152600260205260409020546001600160a01b031615620002655760405162461bcd60e51b815260206004820152601c60248201527f4552433732313a20746f6b656e20616c7265616479206d696e746564000000006044820152606401620000d2565b6000818152600260205260409020546001600160a01b031615620002cc5760405162461bcd60e51b815260206004820152601c60248201527f4552433732313a20746f6b656e20616c7265616479206d696e746564000000006044820152606401620000d2565b6001600160a01b038216600081815260036020908152604080832080546001019055848352600290915280822080546001600160a01b0319168417905551839291907fddf252ad1be2c89b69c2b068fc378daa952ba7f163c4a11628f55a4df523b3ef908290a45050565b600062000358846001600160a01b03166200049360201b620007521760201c565b156200048757604051630a85bd0160e11b81526001600160a01b0385169063150b7a029062000392903390899088908890600401620007a4565b6020604051808303816000875af1925050508015620003d0575060408051601f3d908101601f19168201909252620003cd91810190620007fa565b60015b6200046c573d80801562000401576040519150601f19603f3d011682016040523d82523d6000602084013e62000406565b606091505b508051600003620004645760405162461bcd60e51b81526020600482015260326024820152600080516020620018b383398151915260448201527131b2b4bb32b91034b6b83632b6b2b73a32b960711b6064820152608401620000d2565b805181602001fd5b6001600160e01b031916630a85bd0160e11b1490506200048b565b5060015b949350505050565b6001600160a01b03163b151590565b634e487b7160e01b600052604160045260246000fd5b60005b83811015620004d5578181015183820152602001620004bb565b50506000910152565b600082601f830112620004f057600080fd5b81516001600160401b03808211156200050d576200050d620004a2565b604051601f8301601f19908116603f01168101908282118183101715620005385762000538620004a2565b816040528381528660208588010111156200055257600080fd5b62000565846020830160208901620004b8565b9695505050505050565b600080600080608085870312156200058657600080fd5b84516001600160401b03808211156200059e57600080fd5b620005ac88838901620004de565b95506020870151915080821115620005c357600080fd5b620005d188838901620004de565b94506040870151915080821115620005e857600080fd5b50620005f787828801620004de565b606087015190935090506001600160a01b03811681146200061757600080fd5b939692955090935050565b600181811c908216806200063757607f821691505b6020821081036200065857634e487b7160e01b600052602260045260246000fd5b50919050565b601f821115620001a157600081815260208120601f850160051c81016020861015620006875750805b601f850160051c820191505b81811015620006a85782815560010162000693565b505050505050565b81516001600160401b03811115620006cc57620006cc620004a2565b620006e481620006dd845462000622565b846200065e565b602080601f8311600181146200071c5760008415620007035750858301515b600019600386901b1c1916600185901b178555620006a8565b600085815260208120601f198616915b828110156200074d578886015182559484019460019091019084016200072c565b50858210156200076c5787850151600019600388901b60f8161c191681555b5050505050600190811b01905550565b808201808211156200079e57634e487b7160e01b600052601160045260246000fd5b92915050565b600060018060a01b038087168352808616602084015250836040830152608060608301528251806080840152620007e38160a0850160208701620004b8565b601f01601f19169190910160a00195945050505050565b6000602082840312156200080d57600080fd5b81516001600160e01b0319811681146200082657600080fd5b9392505050565b611076806200083d6000396000f3fe608060405234801561001057600080fd5b506004361061010b5760003560e01c806370a08231116100a2578063a22cb46511610071578063a22cb4651461020a578063b88d4fde1461021d578063c87b56dd14610230578063cfc86f7b14610243578063e985e9c51461024b57600080fd5b806370a08231146101dd578063714cff56146101f057806395d89b41146101f9578063a035b1fe1461020157600080fd5b806323b872dd116100de57806323b872dd1461018d57806342842e0e146101a05780635f769621146101b35780636352211e146101ca57600080fd5b806301ffc9a71461011057806306fdde0314610138578063081812fc1461014d578063095ea7b314610178575b600080fd5b61012361011e366004610c3b565b610287565b60405190151581526020015b60405180910390f35b6101406102d9565b60405161012f9190610c9e565b61016061015b366004610cb1565b61036b565b6040516001600160a01b03909116815260200161012f565b61018b610186366004610ce6565b610392565b005b61018b61019b366004610d10565b6104ac565b61018b6101ae366004610d10565b6104dd565b6101bc60075481565b60405190815260200161012f565b6101606101d8366004610cb1565b6104f8565b6101bc6101eb366004610d4c565b610558565b6101bc60085481565b6101406105de565b6101bc60095481565b61018b610218366004610d67565b6105ed565b61018b61022b366004610db9565b6105fc565b61014061023e366004610cb1565b610634565b6101406106c4565b610123610259366004610e95565b6001600160a01b03918216600090815260056020908152604080832093909416825291909152205460ff1690565b60006001600160e01b031982166380ac58cd60e01b14806102b857506001600160e01b03198216635b5e139f60e01b145b806102d357506301ffc9a760e01b6001600160e01b03198316145b92915050565b6060600080546102e890610ec8565b80601f016020809104026020016040519081016040528092919081815260200182805461031490610ec8565b80156103615780601f1061033657610100808354040283529160200191610361565b820191906000526020600020905b81548152906001019060200180831161034457829003601f168201915b5050505050905090565b600061037682610761565b506000908152600460205260409020546001600160a01b031690565b600061039d826104f8565b9050806001600160a01b0316836001600160a01b03160361040f5760405162461bcd60e51b815260206004820152602160248201527f4552433732313a20617070726f76616c20746f2063757272656e74206f776e656044820152603960f91b60648201526084015b60405180910390fd5b336001600160a01b038216148061042b575061042b8133610259565b61049d5760405162461bcd60e51b815260206004820152603d60248201527f4552433732313a20617070726f76652063616c6c6572206973206e6f7420746f60448201527f6b656e206f776e6572206f7220617070726f76656420666f7220616c6c0000006064820152608401610406565b6104a783836107c3565b505050565b6104b63382610831565b6104d25760405162461bcd60e51b815260040161040690610f02565b6104a78383836108b0565b6104a7838383604051806020016040528060008152506105fc565b6000818152600260205260408120546001600160a01b0316806102d35760405162461bcd60e51b8152602060048201526018602482015277115490cdcc8c4e881a5b9d985b1a59081d1bdad95b88125160421b6044820152606401610406565b60006001600160a01b0382166105c25760405162461bcd60e51b815260206004820152602960248201527f4552433732313a2061646472657373207a65726f206973206e6f7420612076616044820152683634b21037bbb732b960b91b6064820152608401610406565b506001600160a01b031660009081526003602052604090205490565b6060600180546102e890610ec8565b6105f8338383610a14565b5050565b6106063383610831565b6106225760405162461bcd60e51b815260040161040690610f02565b61062e84848484610ae2565b50505050565b6000818152600260205260409020546060906001600160a01b03166106b35760405162461bcd60e51b815260206004820152602f60248201527f4552433732314d657461646174613a2055524920717565727920666f72206e6f60448201526e3732bc34b9ba32b73a103a37b5b2b760891b6064820152608401610406565b60006106bd610b15565b9392505050565b600680546106d190610ec8565b80601f01602080910402602001604051908101604052809291908181526020018280546106fd90610ec8565b801561074a5780601f1061071f5761010080835404028352916020019161074a565b820191906000526020600020905b81548152906001019060200180831161072d57829003601f168201915b505050505081565b6001600160a01b03163b151590565b6000818152600260205260409020546001600160a01b03166107c05760405162461bcd60e51b8152602060048201526018602482015277115490cdcc8c4e881a5b9d985b1a59081d1bdad95b88125160421b6044820152606401610406565b50565b600081815260046020526040902080546001600160a01b0319166001600160a01b03841690811790915581906107f8826104f8565b6001600160a01b03167f8c5be1e5ebec7d5bd14f71427d1e84f3dd0314c0f7b2291e5b200ac8c7c3b92560405160405180910390a45050565b60008061083d836104f8565b9050806001600160a01b0316846001600160a01b0316148061088457506001600160a01b0380821660009081526005602090815260408083209388168352929052205460ff165b806108a85750836001600160a01b031661089d8461036b565b6001600160a01b0316145b949350505050565b826001600160a01b03166108c3826104f8565b6001600160a01b0316146108e95760405162461bcd60e51b815260040161040690610f4f565b6001600160a01b03821661094b5760405162461bcd60e51b8152602060048201526024808201527f4552433732313a207472616e7366657220746f20746865207a65726f206164646044820152637265737360e01b6064820152608401610406565b826001600160a01b031661095e826104f8565b6001600160a01b0316146109845760405162461bcd60e51b815260040161040690610f4f565b600081815260046020908152604080832080546001600160a01b03199081169091556001600160a01b0387811680865260038552838620805460001901905590871680865283862080546001019055868652600290945282852080549092168417909155905184937fddf252ad1be2c89b69c2b068fc378daa952ba7f163c4a11628f55a4df523b3ef91a4505050565b816001600160a01b0316836001600160a01b031603610a755760405162461bcd60e51b815260206004820152601960248201527f4552433732313a20617070726f766520746f2063616c6c6572000000000000006044820152606401610406565b6001600160a01b03838116600081815260056020908152604080832094871680845294825291829020805460ff191686151590811790915591519182527f17307eab39ab6107e8899845ad3d59bd9653f200f220920489ca2b5937696c31910160405180910390a3505050565b610aed8484846108b0565b610af984848484610b24565b61062e5760405162461bcd60e51b815260040161040690610f94565b6060600680546102e890610ec8565b60006001600160a01b0384163b15610c1a57604051630a85bd0160e11b81526001600160a01b0385169063150b7a0290610b68903390899088908890600401610fe6565b6020604051808303816000875af1925050508015610ba3575060408051601f3d908101601f19168201909252610ba091810190611023565b60015b610c00573d808015610bd1576040519150601f19603f3d011682016040523d82523d6000602084013e610bd6565b606091505b508051600003610bf85760405162461bcd60e51b815260040161040690610f94565b805181602001fd5b6001600160e01b031916630a85bd0160e11b1490506108a8565b506001949350505050565b6001600160e01b0319811681146107c057600080fd5b600060208284031215610c4d57600080fd5b81356106bd81610c25565b6000815180845260005b81811015610c7e57602081850181015186830182015201610c62565b506000602082860101526020601f19601f83011685010191505092915050565b6020815260006106bd6020830184610c58565b600060208284031215610cc357600080fd5b5035919050565b80356001600160a01b0381168114610ce157600080fd5b919050565b60008060408385031215610cf957600080fd5b610d0283610cca565b946020939093013593505050565b600080600060608486031215610d2557600080fd5b610d2e84610cca565b9250610d3c60208501610cca565b9150604084013590509250925092565b600060208284031215610d5e57600080fd5b6106bd82610cca565b60008060408385031215610d7a57600080fd5b610d8383610cca565b915060208301358015158114610d9857600080fd5b809150509250929050565b634e487b7160e01b600052604160045260246000fd5b60008060008060808587031215610dcf57600080fd5b610dd885610cca565b9350610de660208601610cca565b925060408501359150606085013567ffffffffffffffff80821115610e0a57600080fd5b818701915087601f830112610e1e57600080fd5b813581811115610e3057610e30610da3565b604051601f8201601f19908116603f01168101908382118183101715610e5857610e58610da3565b816040528281528a6020848701011115610e7157600080fd5b82602086016020830137600060208483010152809550505050505092959194509250565b60008060408385031215610ea857600080fd5b610eb183610cca565b9150610ebf60208401610cca565b90509250929050565b600181811c90821680610edc57607f821691505b602082108103610efc57634e487b7160e01b600052602260045260246000fd5b50919050565b6020808252602d908201527f4552433732313a2063616c6c6572206973206e6f7420746f6b656e206f776e6560408201526c1c881bdc88185c1c1c9bdd9959609a1b606082015260800190565b60208082526025908201527f4552433732313a207472616e736665722066726f6d20696e636f72726563742060408201526437bbb732b960d91b606082015260800190565b60208082526032908201527f4552433732313a207472616e7366657220746f206e6f6e20455243373231526560408201527131b2b4bb32b91034b6b83632b6b2b73a32b960711b606082015260800190565b6001600160a01b038581168252841660208201526040810183905260806060820181905260009061101990830184610c58565b9695505050505050565b60006020828403121561103557600080fd5b81516106bd81610c2556fea2646970667358221220f11faa25d6508bc22f7572692fad39df9ebe28e7c46396c86c19cdd37059432e64736f6c634300081200334552433732313a207472616e7366657220746f206e6f6e204552433732315265a2646970667358221220ea914c23bbc3997135577a16d8c613617a22a132e7568819fcc3300533447f4e64736f6c63430008120033",
  "linkReferences": {},
  "deployedLinkReferences": {}
}