{
  "_format": "hh-sol-artifact-1",
  "contractName": "MyNFT",
  "sourceName": "contracts/MyNFT.sol",
  "abi": [
    {
      "inputs": [
        {
          "internalType": "string",
          "name": "baseURI",
          "type": "string"
        },
        {
          "internalType": "string",
          "name": "tokenName",
          "type": "string"
        },
        {
          "internalType": "string",
          "name": "short",
          "type": "string"
        },
        {
          "internalType": "address",
          "name": "addr",
          "type": "address"
        }
      ],
      "stateMutability": "nonpayable",
      "type": "constructor"
    },
    {
      "anonymous": false,
      "inputs": [
        {
          "indexed": true,
          "internalType": "address",
          "name": "owner",
          "type": "address"
        },
        {
          "indexed": true,
          "internalType": "address",
          "name": "approved",
          "type": "address"
        },
        {
          "indexed": true,
          "internalType": "uint256",
          "name": "tokenId",
          "type": "uint256"
        }
      ],
      "name": "Approval",
      "type": "event"
    },
    {
      "anonymous": false,
      "inputs": [
        {
          "indexed": true,
          "internalType": "address",
          "name": "owner",
          "type": "address"
        },
        {
          "indexed": true,
          "internalType": "address",
          "name": "operator",
          "type": "address"
        },
        {
          "indexed": false,
          "internalType": "bool",
          "name": "approved",
          "type": "bool"
        }
      ],
      "name": "ApprovalForAll",
      "type": "event"
    },
    {
      "anonymous": false,
      "inputs": [
        {
          "indexed": true,
          "internalType": "address",
          "name": "from",
          "type": "address"
        },
        {
          "indexed": true,
          "internalType": "address",
          "name": "to",
          "type": "address"
        },
        {
          "indexed": true,
          "internalType": "uint256",
          "name": "tokenId",
          "type": "uint256"
        }
      ],
      "name": "Transfer",
      "type": "event"
    },
    {
      "inputs": [],
      "name": "_baseTokenURI",
      "outputs": [
        {
          "internalType": "string",
          "name": "",
          "type": "string"
        }
      ],
      "stateMutability": "view",
      "type": "function"
    },
    {
      "inputs": [
        {
          "internalType": "address",
          "name": "to",
          "type": "address"
        },
        {
          "internalType": "uint256",
          "name": "tokenId",
          "type": "uint256"
        }
      ],
      "name": "approve",
      "outputs": [],
      "stateMutability": "nonpayable",
      "type": "function"
    },
    {
      "inputs": [
        {
          "internalType": "address",
          "name": "owner",
          "type": "address"
        }
      ],
      "name": "balanceOf",
      "outputs": [
        {
          "internalType": "uint256",
          "name": "",
          "type": "uint256"
        }
      ],
      "stateMutability": "view",
      "type": "function"
    },
    {
      "inputs": [
        {
          "internalType": "uint256",
          "name": "tokenId",
          "type": "uint256"
        }
      ],
      "name": "getApproved",
      "outputs": [
        {
          "internalType": "address",
          "name": "",
          "type": "address"
        }
      ],
      "stateMutability": "view",
      "type": "function"
    },
    {
      "inputs": [
        {
          "internalType": "address",
          "name": "owner",
          "type": "address"
        },
        {
          "internalType": "address",
          "name": "operator",
          "type": "address"
        }
      ],
      "name": "isApprovedForAll",
      "outputs": [
        {
          "internalType": "bool",
          "name": "",
          "type": "bool"
        }
      ],
      "stateMutability": "view",
      "type": "function"
    },
    {
      "inputs": [],
      "name": "maxTokenIds",
      "outputs": [
        {
          "internalType": "uint256",
          "name": "",
          "type": "uint256"
        }
      ],
      "stateMutability": "view",
      "type": "function"
    },
    {
      "inputs": [],
      "name": "name",
      "outputs": [
        {
          "internalType": "string",
          "name": "",
          "type": "string"
        }
      ],
      "stateMutability": "view",
      "type": "function"
    },
    {
      "inputs": [
        {
          "internalType": "uint256",
          "name": "tokenId",
          "type": "uint256"
        }
      ],
      "name": "ownerOf",
      "outputs": [
        {
          "internalType": "address",
          "name": "",
          "type": "address"
        }
      ],
      "stateMutability": "view",
      "type": "function"
    },
    {
      "inputs": [],
      "name": "price",
      "outputs": [
        {
          "internalType": "uint256",
          "name": "",
          "type": "uint256"
        }
      ],
      "stateMutability": "view",
      "type": "function"
    },
    {
      "inputs": [
        {
          "internalType": "address",
          "name": "from",
          "type": "address"
        },
        {
          "internalType": "address",
          "name": "to",
          "type": "address"
        },
        {
          "internalType": "uint256",
          "name": "tokenId",
          "type": "uint256"
        }
      ],
      "name": "safeTransferFrom",
      "outputs": [],
      "stateMutability": "nonpayable",
      "type": "function"
    },
    {
      "inputs": [
        {
          "internalType": "address",
          "name": "from",
          "type": "address"
        },
        {
          "internalType": "address",
          "name": "to",
          "type": "address"
        },
        {
          "internalType": "uint256",
          "name": "tokenId",
          "type": "uint256"
        },
        {
          "internalType": "bytes",
          "name": "data",
          "type": "bytes"
        }
      ],
      "name": "safeTransferFrom",
      "outputs": [],
      "stateMutability": "nonpayable",
      "type": "function"
    },
    {
      "inputs": [
        {
          "internalType": "address",
          "name": "operator",
          "type": "address"
        },
        {
          "internalType": "bool",
          "name": "approved",
          "type": "bool"
        }
      ],
      "name": "setApprovalForAll",
      "outputs": [],
      "stateMutability": "nonpayable",
      "type": "function"
    },
    {
      "inputs": [
        {
          "internalType": "bytes4",
          "name": "interfaceId",
          "type": "bytes4"
        }
      ],
      "name": "supportsInterface",
      "outputs": [
        {
          "internalType": "bool",
          "name": "",
          "type": "bool"
        }
      ],
      "stateMutability": "view",
      "type": "function"
    },
    {
      "inputs": [],
      "name": "symbol",
      "outputs": [
        {
          "internalType": "string",
          "name": "",
          "type": "string"
        }
      ],
      "stateMutability": "view",
      "type": "function"
    },
    {
      "inputs": [],
      "name": "tokenIds",
      "outputs": [
        {
          "internalType": "uint256",
          "name": "",
          "type": "uint256"
        }
      ],
      "stateMutability": "view",
      "type": "function"
    },
    {
      "inputs": [
        {
          "internalType": "uint256",
          "name": "tokenId",
          "type": "uint256"
        }
      ],
      "name": "tokenURI",
      "outputs": [
        {
          "internalType": "string",
          "name": "",
          "type": "string"
        }
      ],
      "stateMutability": "view",
      "type": "function"
    },
    {
      "inputs": [
        {
          "internalType": "address",
          "name": "from",
          "type": "address"
        },
        {
          "internalType": "address",
          "name": "to",
          "type": "address"
        },
        {
          "internalType": "uint256",
          "name": "tokenId",
          "type": "uint256"
        }
      ],
      "name": "transferFrom",
      "outputs": [],
      "stateMutability": "nonpayable",
      "type": "function"
    }
  ],
  "bytecode": "0x608060405260016007553480156200001657600080fd5b50604051620018d3380380620018d383398101604081905262000039916200056f565b82826000620000498382620006b0565b506001620000588282620006b0565b50600691506200006b90508582620006b0565b50620000778162000081565b505050506200082d565b6007546008541115620000db5760405162461bcd60e51b815260206004820152601b60248201527f457863656564206d6178696d756d20746f6b656e20737570706c79000000000060448201526064015b60405180910390fd5b600160086000828254620000f091906200077c565b90915550506008546200010590829062000108565b50565b6200012a8282604051806020016040528060008152506200012e60201b60201c565b5050565b6200013a8383620001a6565b62000149600084848462000337565b620001a15760405162461bcd60e51b81526020600482015260326024820152600080516020620018b383398151915260448201527131b2b4bb32b91034b6b83632b6b2b73a32b960711b6064820152608401620000d2565b505050565b6001600160a01b038216620001fe5760405162461bcd60e51b815260206004820181905260248201527f4552433732313a206d696e7420746f20746865207a65726f20616464726573736044820152606401620000d2565b6000818152600260205260409020546001600160a01b031615620002655760405162461bcd60e51b815260206004820152601c60248201527f4552433732313a20746f6b656e20616c7265616479206d696e746564000000006044820152606401620000d2565b6000818152600260205260409020546001600160a01b031615620002cc5760405162461bcd60e51b815260206004820152601c60248201527f4552433732313a20746f6b656e20616c7265616479206d696e746564000000006044820152606401620000d2565b6001600160a01b038216600081815260036020908152604080832080546001019055848352600290915280822080546001600160a01b0319168417905551839291907fddf252ad1be2c89b69c2b068fc378daa952ba7f163c4a11628f55a4df523b3ef908290a45050565b600062000358846001600160a01b03166200049360201b620007521760201c565b156200048757604051630a85bd0160e11b81526001600160a01b0385169063150b7a029062000392903390899088908890600401620007a4565b6020604051808303816000875af1925050508015620003d0575060408051601f3d908101601f19168201909252620003cd91810190620007fa565b60015b6200046c573d80801562000401576040519150601f19603f3d011682016040523d82523d6000602084013e62000406565b606091505b508051600003620004645760405162461bcd60e51b81526020600482015260326024820152600080516020620018b383398151915260448201527131b2b4bb32b91034b6b83632b6b2b73a32b960711b6064820152608401620000d2565b805181602001fd5b6001600160e01b031916630a85bd0160e11b1490506200048b565b5060015b949350505050565b6001600160a01b03163b151590565b634e487b7160e01b600052604160045260246000fd5b60005b83811015620004d5578181015183820152602001620004bb565b50506000910152565b600082601f830112620004f057600080fd5b81516001600160401b03808211156200050d576200050d620004a2565b604051601f8301601f19908116603f01168101908282118183101715620005385762000538620004a2565b816040528381528660208588010111156200055257600080fd5b62000565846020830160208901620004b8565b9695505050505050565b600080600080608085870312156200058657600080fd5b84516001600160401b03808211156200059e57600080fd5b620005ac88838901620004de565b95506020870151915080821115620005c357600080fd5b620005d188838901620004de565b94506040870151915080821115620005e857600080fd5b50620005f787828801620004de565b606087015190935090506001600160a01b03811681146200061757600080fd5b939692955090935050565b600181811c908216806200063757607f821691505b6020821081036200065857634e487b7160e01b600052602260045260246000fd5b50919050565b601f821115620001a157600081815260208120601f850160051c81016020861015620006875750805b601f850160051c820191505b81811015620006a85782815560010162000693565b505050505050565b81516001600160401b03811115620006cc57620006cc620004a2565b620006e481620006dd845462000622565b846200065e565b602080601f8311600181146200071c5760008415620007035750858301515b600019600386901b1c1916600185901b178555620006a8565b600085815260208120601f198616915b828110156200074d578886015182559484019460019091019084016200072c565b50858210156200076c5787850151600019600388901b60f8161c191681555b5050505050600190811b01905550565b808201808211156200079e57634e487b7160e01b600052601160045260246000fd5b92915050565b600060018060a01b038087168352808616602084015250836040830152608060608301528251806080840152620007e38160a0850160208701620004b8565b601f01601f19169190910160a00195945050505050565b6000602082840312156200080d57600080fd5b81516001600160e01b0319811681146200082657600080fd5b9392505050565b611076806200083d6000396000f3fe608060405234801561001057600080fd5b506004361061010b5760003560e01c806370a08231116100a2578063a22cb46511610071578063a22cb4651461020a578063b88d4fde1461021d578063c87b56dd14610230578063cfc86f7b14610243578063e985e9c51461024b57600080fd5b806370a08231146101dd578063714cff56146101f057806395d89b41146101f9578063a035b1fe1461020157600080fd5b806323b872dd116100de57806323b872dd1461018d57806342842e0e146101a05780635f769621146101b35780636352211e146101ca57600080fd5b806301ffc9a71461011057806306fdde0314610138578063081812fc1461014d578063095ea7b314610178575b600080fd5b61012361011e366004610c3b565b610287565b60405190151581526020015b60405180910390f35b6101406102d9565b60405161012f9190610c9e565b61016061015b366004610cb1565b61036b565b6040516001600160a01b03909116815260200161012f565b61018b610186366004610ce6565b610392565b005b61018b61019b366004610d10565b6104ac565b61018b6101ae366004610d10565b6104dd565b6101bc60075481565b60405190815260200161012f565b6101606101d8366004610cb1565b6104f8565b6101bc6101eb366004610d4c565b610558565b6101bc60085481565b6101406105de565b6101bc60095481565b61018b610218366004610d67565b6105ed565b61018b61022b366004610db9565b6105fc565b61014061023e366004610cb1565b610634565b6101406106c4565b610123610259366004610e95565b6001600160a01b03918216600090815260056020908152604080832093909416825291909152205460ff1690565b60006001600160e01b031982166380ac58cd60e01b14806102b857506001600160e01b03198216635b5e139f60e01b145b806102d357506301ffc9a760e01b6001600160e01b03198316145b92915050565b6060600080546102e890610ec8565b80601f016020809104026020016040519081016040528092919081815260200182805461031490610ec8565b80156103615780601f1061033657610100808354040283529160200191610361565b820191906000526020600020905b81548152906001019060200180831161034457829003601f168201915b5050505050905090565b600061037682610761565b506000908152600460205260409020546001600160a01b031690565b600061039d826104f8565b9050806001600160a01b0316836001600160a01b03160361040f5760405162461bcd60e51b815260206004820152602160248201527f4552433732313a20617070726f76616c20746f2063757272656e74206f776e656044820152603960f91b60648201526084015b60405180910390fd5b336001600160a01b038216148061042b575061042b8133610259565b61049d5760405162461bcd60e51b815260206004820152603d60248201527f4552433732313a20617070726f76652063616c6c6572206973206e6f7420746f60448201527f6b656e206f776e6572206f7220617070726f76656420666f7220616c6c0000006064820152608401610406565b6104a783836107c3565b505050565b6104b63382610831565b6104d25760405162461bcd60e51b815260040161040690610f02565b6104a78383836108b0565b6104a7838383604051806020016040528060008152506105fc565b6000818152600260205260408120546001600160a01b0316806102d35760405162461bcd60e51b8152602060048201526018602482015277115490cdcc8c4e881a5b9d985b1a59081d1bdad95b88125160421b6044820152606401610406565b60006001600160a01b0382166105c25760405162461bcd60e51b815260206004820152602960248201527f4552433732313a2061646472657373207a65726f206973206e6f7420612076616044820152683634b21037bbb732b960b91b6064820152608401610406565b506001600160a01b031660009081526003602052604090205490565b6060600180546102e890610ec8565b6105f8338383610a14565b5050565b6106063383610831565b6106225760405162461bcd60e51b815260040161040690610f02565b61062e84848484610ae2565b50505050565b6000818152600260205260409020546060906001600160a01b03166106b35760405162461bcd60e51b815260206004820152602f60248201527f4552433732314d657461646174613a2055524920717565727920666f72206e6f60448201526e3732bc34b9ba32b73a103a37b5b2b760891b6064820152608401610406565b60006106bd610b15565b9392505050565b600680546106d190610ec8565b80601f01602080910402602001604051908101604052809291908181526020018280546106fd90610ec8565b801561074a5780601f1061071f5761010080835404028352916020019161074a565b820191906000526020600020905b81548152906001019060200180831161072d57829003601f168201915b505050505081565b6001600160a01b03163b151590565b6000818152600260205260409020546001600160a01b03166107c05760405162461bcd60e51b8152602060048201526018602482015277115490cdcc8c4e881a5b9d985b1a59081d1bdad95b88125160421b6044820152606401610406565b50565b600081815260046020526040902080546001600160a01b0319166001600160a01b03841690811790915581906107f8826104f8565b6001600160a01b03167f8c5be1e5ebec7d5bd14f71427d1e84f3dd0314c0f7b2291e5b200ac8c7c3b92560405160405180910390a45050565b60008061083d836104f8565b9050806001600160a01b0316846001600160a01b0316148061088457506001600160a01b0380821660009081526005602090815260408083209388168352929052205460ff165b806108a85750836001600160a01b031661089d8461036b565b6001600160a01b0316145b949350505050565b826001600160a01b03166108c3826104f8565b6001600160a01b0316146108e95760405162461bcd60e51b815260040161040690610f4f565b6001600160a01b03821661094b5760405162461bcd60e51b8152602060048201526024808201527f4552433732313a207472616e7366657220746f20746865207a65726f206164646044820152637265737360e01b6064820152608401610406565b826001600160a01b031661095e826104f8565b6001600160a01b0316146109845760405162461bcd60e51b815260040161040690610f4f565b600081815260046020908152604080832080546001600160a01b03199081169091556001600160a01b0387811680865260038552838620805460001901905590871680865283862080546001019055868652600290945282852080549092168417909155905184937fddf252ad1be2c89b69c2b068fc378daa952ba7f163c4a11628f55a4df523b3ef91a4505050565b816001600160a01b0316836001600160a01b031603610a755760405162461bcd60e51b815260206004820152601960248201527f4552433732313a20617070726f766520746f2063616c6c6572000000000000006044820152606401610406565b6001600160a01b03838116600081815260056020908152604080832094871680845294825291829020805460ff191686151590811790915591519182527f17307eab39ab6107e8899845ad3d59bd9653f200f220920489ca2b5937696c31910160405180910390a3505050565b610aed8484846108b0565b610af984848484610b24565b61062e5760405162461bcd60e51b815260040161040690610f94565b6060600680546102e890610ec8565b60006001600160a01b0384163b15610c1a57604051630a85bd0160e11b81526001600160a01b0385169063150b7a0290610b68903390899088908890600401610fe6565b6020604051808303816000875af1925050508015610ba3575060408051601f3d908101601f19168201909252610ba091810190611023565b60015b610c00573d808015610bd1576040519150601f19603f3d011682016040523d82523d6000602084013e610bd6565b606091505b508051600003610bf85760405162461bcd60e51b815260040161040690610f94565b805181602001fd5b6001600160e01b031916630a85bd0160e11b1490506108a8565b506001949350505050565b6001600160e01b0319811681146107c057600080fd5b600060208284031215610c4d57600080fd5b81356106bd81610c25565b6000815180845260005b81811015610c7e57602081850181015186830182015201610c62565b506000602082860101526020601f19601f83011685010191505092915050565b6020815260006106bd6020830184610c58565b600060208284031215610cc357600080fd5b5035919050565b80356001600160a01b0381168114610ce157600080fd5b919050565b60008060408385031215610cf957600080fd5b610d0283610cca565b946020939093013593505050565b600080600060608486031215610d2557600080fd5b610d2e84610cca565b9250610d3c60208501610cca565b9150604084013590509250925092565b600060208284031215610d5e57600080fd5b6106bd82610cca565b60008060408385031215610d7a57600080fd5b610d8383610cca565b915060208301358015158114610d9857600080fd5b809150509250929050565b634e487b7160e01b600052604160045260246000fd5b60008060008060808587031215610dcf57600080fd5b610dd885610cca565b9350610de660208601610cca565b925060408501359150606085013567ffffffffffffffff80821115610e0a57600080fd5b818701915087601f830112610e1e57600080fd5b813581811115610e3057610e30610da3565b604051601f8201601f19908116603f01168101908382118183101715610e5857610e58610da3565b816040528281528a6020848701011115610e7157600080fd5b82602086016020830137600060208483010152809550505050505092959194509250565b60008060408385031215610ea857600080fd5b610eb183610cca565b9150610ebf60208401610cca565b90509250929050565b600181811c90821680610edc57607f821691505b602082108103610efc57634e487b7160e01b600052602260045260246000fd5b50919050565b6020808252602d908201527f4552433732313a2063616c6c6572206973206e6f7420746f6b656e206f776e6560408201526c1c881bdc88185c1c1c9bdd9959609a1b606082015260800190565b60208082526025908201527f4552433732313a207472616e736665722066726f6d20696e636f72726563742060408201526437bbb732b960d91b606082015260800190565b60208082526032908201527f4552433732313a207472616e7366657220746f206e6f6e20455243373231526560408201527131b2b4bb32b91034b6b83632b6b2b73a32b960711b606082015260800190565b6001600160a01b038581168252841660208201526040810183905260806060820181905260009061101990830184610c58565b9695505050505050565b60006020828403121561103557600080fd5b81516106bd81610c2556fea2646970667358221220f11faa25d6508bc22f7572692fad39df9ebe28e7c46396c86c19cdd37059432e64736f6c634300081200334552433732313a207472616e7366657220746f206e6f6e204552433732315265",
  "linkReferences": {},
  "deployedLinkReferences": {}
}